:020000001628C0
:0E0006008312031321088A00200882000800DC
:1000140003208A110A128000840AA00A0319A10A83
:08002400F003031D0A28080087
:10002C000A3083120313A2000030A3000A30A4008C
:10003C000030A5000A30A6000030A7008030A800D0
:10004C000030A9000130AA000030AB000130AC0038
:10005C000030AD00831603178801890186018030BA
:10006C00F00080308312031327067002031D402812
:10007C002608003C0318BC282A08280786002208FA
:10008C00A4002308A5008030F00080302506700203
:10009C00031D52282408003C031863280330FC007D
:1000AC009730FD00FD0B5828FC0B58280000000071
:1000BC000130A402031CA503492800302D06031DA2
:1000CC00692801302C06031D8C288030F00080300C
:1000DC0029067002031D74282808003C03187F2889
:1000EC00A90CA80CA913291BA917AA0DAB0D2A1032
:1000FC008C28AC01AD010130A8000030A900803083
:10010C00AA00AB010130A602031CA70300302D0688
:10011C00031D922800302C06031DBB288030F000F4
:10012C00803029067002031D9D282808203C031CE2
:10013C00A828A80DA90D2810AB0CAA0CAB132B1BCF
:10014C00AB17BB280130AC000030AD008030A800EC
:10015C00A9010130AA000030AB000130A602031C3B
:10016C00A7030130A202031CA30335288601BD2876
:04400E00F22F000786
:00000001FF
