:02000000432893
:0E0006008312031321088A00200882000800DC
:10001400831603178C1C102800000A28831203136C
:100024002C0803178D0003132D0803178C00831667
:100034008C130C150B08F0008B1355308D00AA306F
:100044008D008C14F01B28288B1329288B170C1176
:020054000800A2
:10005600831203132C0803178D0083168C130C14BC
:0800660083120C08F0000800F1
:10006E0003208A110A128000840AA00A0319A10A29
:08007E00F003031D3728080000
:10008600733083120313A4000030A5007730A60056
:100096000030A7007930A8000030A900AA01AB0102
:1000A6008316031788018901031388148601FF301C
:1000B600850022308312AC000C30AD000A202230BD
:1000C60083120313AC002B2070080313A200A301B4
:1000D60088188D280508AA00AB01AB0CAA0CAB1337
:1000E6002B1BAB170330F000700803197F28AA0DED
:1000F600AB0D2A10FF3E78280330F0007008031974
:100106008B28AB0CAA0CAB132B1BAB17FF3E82281C
:1001160086016B28881C4B290508AA00AB012A0812
:10012600F1002B08F200F20CF10CF213721BF2171D
:100136007108AA007208AB000330F0007108F300E2
:100146007208F40070080319AD28F30DF40D73104E
:10015600FF3EA6287308AA007408AB000330F0001F
:100166007308F1007408F20070080319C128F20C34
:10017600F10CF213721BF217FF3EB8287108AA00A1
:100186007208AB0080307206F00080307002031DEA
:10019600CE2800307102031CF9288030F000803030
:1001A6002B067002031DD9282A080C3C031CF928CB
:1001B6002B082306031DE12822082A06031DF6281C
:1001C600260886002730FC00F530FD00FD0BE928E7
:1001D600FC0BE92886012730FC00F530FD00FD0BFD
:1001E600F228FC0BF228260886004A2980302B06C6
:1001F600F00080307002031D02290D302A02031C14
:100206002D298030F00080302B067002031D0D2949
:100216002A08173C031C2D292B082306031D152924
:1002260022082A06031D2A29240886002730FC00F6
:10023600F530FD00FD0B1D29FC0B1D29860127301D
:10024600FC00F530FD00FD0B2629FC0B26292408B1
:1002560086004A292B082306031D332922082A066D
:10026600031D4829280886002730FC00F530FD00CC
:10027600FD0B3B29FC0B3B2986012730FC00F530A2
:10028600FD00FD0B4429FC0B4429280886008D2817
:0402960062284C2965
:04400E00F22F000786
:00000001FF
