:020000002A2AAA
:10000800FF00030E8301D7000A08D6008A01700892
:10001800A0008B1C1928A10A0319A20A0630810026
:10002800D401D501D001D1012C280B1D2C2800307A
:100038002406031D212800302306031D2728D40A7F
:100048000319D50A2A28D00A0319D10A06308100D3
:10005800A8308B002008F00056088A00570E83004D
:06006800FF0E7F0E0900EF
:06006E0000000000080084
:0E007400213083120313FD00FD0B3E2808000F
:100082000F3083120313FC004730FD00FD0B47289D
:0A009200FC0B4728000000000800E6
:10009C0083120313F801F9011030FC00710DF80DF7
:1000AC00F90D7408F8027508031C750FF902031892
:1000BC0066287408F80775080318750FF9070310FC
:0A00CC00F00DF10DFC0B54280800A4
:1000D60083120313E61B7128851172288515661B8A
:1000E6007628051177280515E61A7B2885107C28C1
:1000F6008514661A80280510812805144F1885284E
:10010600051686280512851637208512E6198D28CC
:1001160085118E28851566199228051193280515CF
:10012600E618972885109828851466189C280510C7
:100136009D2805144F18A1280516A2280512851614
:10014600372085124F1CA9284120AA283A200800EA
:0E015600831203133D088A003C088200080053
:1001640083120313E401053064020318C0286408F1
:100174006307840020308000E40AB528640863071C
:1001840084008001E40364086307E5000A30F40096
:10019400F5016108F0006208F1004E207808F000D3
:1001A4007908F1003030F007650884007008800099
:1001B4000A30F400F5016108F0006208F1004E20F5
:1001C4007008E1007108E20000307106031DEC289C
:1001D40000307006031DEF28F128E403C528080049
:1001E400831203134F106108E6006B204F140800BC
:1001F40083120313D901DA015808F2005808F300F6
:10020400720884000008203A031D0D2959085A0475
:10021400031D0D291A290130D9000030DA007208B3
:1002240084000008F0007308840070088000F30A5A
:100234007208F100F20A710884000008003A031DF4
:0802440002295808F00008002F
:10024C003829803083120313D8004B29C030D800D2
:10025C004B299430D8004B29D430D8004B2980300E
:10026C00D8004B29831203135808013A0319272984
:10027C005808023A03192C295808033A03192F2954
:10028C005808043A0319322935295903F000580843
:10029C00F0077008D8007008E6006B204F10DB01E7
:1002AC005B085A0784000008031964295B085A0785
:1002BC0084000008E100F220DB0A56294F140800E4
:1002CC0083120313DD01DE015808DF005908E0003A
:1002DC0080305906F00080307002031D7729003001
:1002EC005802031885290130DD000030DE00580863
:1002FC00003CDF005908031C013EE001E0025F08EE
:10030C00E1006008E2005A08E300B2200630DB008E
:10031C000030DC005C08003C031D96295B08003CA7
:10032C000318B1295B085A07F20001305B02F00098
:10033C000030031C013E5C02F10070085A07840077
:10034C000008F00072088400700880000130DB02A5
:10035C00031CDC0390295A088400203080005D08BF
:10036C005E040319CF29DB01DC015B085A0784000A
:10037C000008203A031DC629DB0A0319DC0ABB2935
:10038C000130DB02031CDC035B085A0784002D30B0
:04039C0080000800D5
:1003A000831603138512051205108510051185119A
:1003B0008312851205128511051185100510412043
:1003C00041204120851405148516372085124120CF
:1003D0008516372085124120851637208512412049
:1003E0000510851637208512412085163720851285
:1003F0008510851585163720851241208511051435
:100400008516372085120510851637208512412064
:100410008516372085120514851637208512412050
:1004200005108516372085128515051585140514C8
:0C04300085163720851241204F1408006B
:10043C00AB208A110A128000840ABC0A0319BD0A77
:08044C00F003031D1E2A080045
:10045400013083120313A100A201A301A4015430AB
:10046400A5006530A6006B30A7006F30A800763079
:10047400A9006530AA006E30AB002030AC006230B9
:10048400AD007230AE006F30AF006A30B0003A3069
:10049400B100B2014E30B3006530B4005230B50043
:1004A4006130B6006230B7006F30B8007430B90004
:1004B4006930BA00BB018316031788018901013032
:1004C4008600253083120313D2003330D3008630E4
:1004D40083168100063083128100B0308B00D40172
:1004E400D501D001D101D0210C30E6006B200130C0
:1004F400E6006B200130D8000130D9005208DA0040
:1005040026212108D8002208D9003E30DA006621CD
:100514003E30D800FA207008CE000230D8000130F6
:10052400D9003E30DA00262100302406031D9C2A1F
:1005340000302306031DE12A00305506031DA42ABA
:1005440000305406031DC62A0C30E6006B2001302F
:10055400E6006B202108D8002208D9003E30DA00DA
:1005640066213E30D800FA207008CE000130D80051
:100574000130D9005208DA0026210230D8000130B7
:10058400D9004E08DA00262100305502031DCC2A7A
:1005940003305402031CE12AD401D5010C30E600D7
:1005A4006B200130E6006B200130D8000130D90007
:1005B4005308DA0026210130A3000030A4000030E3
:1005C4002406031DE72A01302306031DF82A003000
:1005D4005102031DEF2A06305002031CF82A0C3086
:1005E400E6006B200130E6006B20F92A962AF92AEE
:04400E00F22F000786
:00000001FF
