:02000000342AA0
:10000800FF00030E8301D7000A08D6008A01700892
:10001800A0008B1D23288B1C232800302406031DD9
:10002800172800302306031D2328A10A0319A20A52
:1000380006308100D401D501D001D10136280B1D2D
:10004800362800302406031D2B2800302306031D04
:100058003128D40A0319D50A3428D00A0319D10A39
:1000680006308100A8308B002008F00056088A006E
:0A007800570E8300FF0E7F0E0900F3
:0600820000000000080070
:0E008800213083120313FD00FD0B48280800F1
:100096000F3083120313FC004730FD00FD0B51287F
:0A00A600FC0B5128000000000800C8
:1000B00083120313F801F9011030FC00710DF80DE3
:1000C000F90D7408F8027508031C750FF90203187E
:1000D00070287408F80775080318750FF9070310DE
:0A00E000F00DF10DFC0B5E28080086
:1000EA0083120313E61B7B2885117C288515661B62
:1000FA008028051181280515E61A85288510862885
:10010A008514661A8A2805108B2805144F188F281B
:10011A00051690280512851641208512E61997289A
:10012A0085119828851566199C2805119D2805159D
:10013A00E618A1288510A22885146618A628051095
:10014A00A72805144F18AB280516AC2805128516E2
:10015A00412085124F1CB3284B20B42844200800A4
:0E016A00831203133D088A003C08820008003F
:1001780083120313E401053064020318CA286408D3
:100188006307840020308000E40ABF2864086307FE
:1001980084008001E40364086307E5000A30F40082
:1001A800F5016108F0006208F10058207808F000B5
:1001B8007908F1003030F007650884007008800085
:1001C8000A30F400F5016108F0006208F1005820D7
:1001D8007008E1007108E20000307106031DF6287E
:1001E80000307006031DF928FB28E403CF28080017
:1001F800831203134F106108E60075204F1408009E
:1002080083120313D901DA015808F2005808F300E1
:10021800720884000008203A031D172959085A0457
:10022800031D172924290130D9000030DA0072088B
:1002380084000008F0007308840070088000F30A46
:100248007208F100F20A710884000008003A031DE0
:080258000C295808F000080011
:100260004229803083120313D8005529C030D800AA
:1002700055299430D8005529D430D80055298030DC
:10028000D8005529831203135808013A031931295C
:100290005808023A031936295808033A031939292C
:1002A0005808043A03193C293F295903F00058081B
:1002B000F0077008D8007008E60075204F10DB01C9
:1002C0005B085A078400000803196E295B085A0767
:1002D00084000008E100FC20DB0A60294F140800BC
:1002E00083120313DD01DE015808DF005908E00026
:1002F00080305906F00080307002031D81290030E3
:10030000580203188F290130DD000030DE00580844
:10031000003CDF005908031C013EE001E0025F08D9
:10032000E1006008E2005A08E300BC200630DB0070
:100330000030DC005C08003C031DA0295B08003C89
:100340000318BB295B085A07F20001305B02F0007A
:100350000030031C013E5C02F10070085A07840063
:100360000008F00072088400700880000130DB0291
:10037000031CDC039A295A088400203080005D08A1
:100380005E040319D929DB01DC015B085A078400EC
:100390000008203A031DD029DB0A0319DC0AC5290D
:1003A0000130DB02031CDC035B085A0784002D309C
:0403B00080000800C1
:1003B4008316031385120512051085100511851186
:1003C40083128512051285110511851005104B2025
:1003D4004B204B20851405148516412085124B2093
:1003E4008516412085124B208516412085124B200D
:1003F40005108516412085124B2085164120851253
:10040400851085158516412085124B20851105140C
:1004140085164120851205108516412085124B2032
:1004240085164120851205148516412085124B201E
:1004340005108516412085128515051585140514AA
:0C0444008516412085124B204F14080043
:10045000B5208A110A128000840ABC0A0319BD0A59
:08046000F003031D282A080027
:10046800013083120313A100A201A301A401543097
:10047800A5006530A6006B30A7006F30A800763065
:10048800A9006530AA006E30AB002030AC006230A5
:10049800AD007230AE006F30AF006A30B0003A3055
:1004A800B100B2014E30B3006530B4005230B5002F
:1004B8006130B6006230B7006F30B8007430B900F0
:1004C8006930BA00BB01831603178801890101301E
:1004D8008600253083120313D2003330D3008630D0
:1004E80083168100063083128100A8308B00D40166
:1004F800D501D001D101DA210C30E6007520013098
:10050800E60075200130D8000130D9005208DA0021
:1005180030212108D8002208D9003E30DA007021A5
:100528003E30D80004217008CE000230D8000130D7
:10053800D9003E30DA00302100302406031DA62AF7
:1005480000302306031DEB2A00305506031DAE2A92
:1005580000305406031DD02A0C30E6007520013007
:10056800E60075202108D8002208D9003E30DA00BC
:1005780070213E30D80004217008CE000130D80028
:100588000130D9005208DA0030210230D800013099
:10059800D9004E08DA00302100305502031DD62A52
:1005A80003305402031CEB2AD401D5010C30E600B9
:1005B80075200130E60075200130D8000130D900DF
:1005C8005308DA0030210130A3000030A4000030C5
:1005D8002406031DF12A01302306031D022B0030D7
:1005E8005102031DF92A06305002031C022B0C305D
:1005F800E60075200130E6007520032BA02A032BA6
:04400E00F22F000786
:00000001FF
