:02000000B6291F
:0E000600213083120313FD00FD0B07280800B4
:06001400000000000800DE
:10001A000F3083120313FC004730FD00FD0B132839
:0A002A00FC0B132800000000080082
:1000340083120313EF1B20288611212886156F1BBA
:100044002528061126280615EF1A2A2886102B289B
:1000540086146F1A2F280610302806142418342802
:1000640006163528061286160A208612EF193C2831
:1000740086113D2886156F19412806114228061558
:10008400EF1846288610472886146F184B28061048
:100094004C280614241850280616512806128616D1
:1000A4000A208612241C58280D20592803200800F1
:0E00B4008312031326088A0025088200080024
:1000C2008312031324106E08EF001A202414080070
:1000D200831203136E085A3C031C762841306E02C9
:0E00E200031C76280130F0007728F00108009A
:1000F000831203136E087A3C031C852861306E025C
:0E010000031C85280130F0008628F00108005D
:10010E009928803083120313EA00AC28C030EA002D
:10011E00AC289430EA00AC28D430EA00AC28803009
:10012E00EA00AC28831203136A08013A03198828DF
:10013E006A08023A03198D286A08033A03199028AF
:10014E006A08043A0319932896286B03F0006A088C
:10015E00F0077008EA007008EF001A202410ED0175
:10016E006D086C07840000080319C5286D086C071C
:10017E0084000008EE006120ED0AB7282414080060
:10018E00831203136A08EE0078207008031DD72827
:10019E006A08EE0069207008031DD728F001D928DF
:0601AE000130F000080022
:1001B400831203131A08F100981CE2281812181667
:0601C4007108F0000800C4
:0E01CA000030831203138C1A0130F00008007D
:1001D8005A208A110A128000840AA50A0319A60A5D
:0801E800F003031DEC280800E0
:1001F0008316031386120612061086100611861146
:1002000083128612061286110611861006100D2022
:100210000D200D208614061486160A2086120D2045
:1002200086160A2086120D2086160A2086120D20B8
:10023000061086160A2086120D2086160A208612BF
:100240008610861586160A2086120D208611061441
:1002500086160A208612061086160A2086120D209F
:1002600086160A208612061486160A2086120D208B
:10027000061086160A2086128615061586140614A0
:0C02800086160A2086120D2024140800A7
:10028C0083120313FB01FA01F9018030F800F10C21
:10029C00F00C031C5A297408F90775080318750F1C
:1002AC00FA070318FB0A0310F01F62297408FA07F7
:1002BC0075080318750FFB07FB0CFA0CF90CF80CFE
:1002CC00031C4D297B08F3007A08F2007908F10031
:0602DC007808F0000800A4
:1002E2008329803083120313EA009629C030EA0082
:1002F20096299430EA009629D430EA009629803073
:10030200EA009629831203136A08013A0319722933
:100312006A08023A031977296A08033A03197A2903
:100322006A08043A03197D2980296B03F0006A08E0
:10033200F0077008EA0024147008EF001A20241055
:0A0342006C08EF001A2024140800D4
:10034C008316031398169030831298008316871720
:10035C00071383128C1EB5291A08F000AF29080068
:10036C004F3083120313A0005530A1005430A2006B
:10037C00A30183160317880189018312871388133D
:10038C000313E601E701E401E501F8200130EF0079
:10039C001A200C30EF001A203330831699001815F0
:1003AC00A6218230FC00DD30FD00FD0BDB29FC0BAF
:1003BC00DB2900000000E52070080319D32ADA209D
:1003CC007008A7007008EA00C72070080319F72905
:1003DC0064085A3E840027088000E40A0319E50AE1
:1003EC00D32A2708203A031D622A0130EF001A2075
:1003FC000C30EF001A20E401E50180306506F000B6
:10040C0080307002031D0C2A0A3064020318292A5A
:10041C000A30F0000030F1006608F4006708F500BF
:10042C0046212830F00764087007F10064085A3E32
:10043C0084000008F0007108840070088000E40A51
:10044C000319E50A032A0130EA000130EB000A30F7
:10045C00F0000030F1006608F4006708F500462152
:10046C007008283EEC0087200230FB000430FC00B2
:10047C00BA30FD00FD0B402AFC0B402AFB0B402A36
:10048C000000E401E50180306506F0008030700268
:10049C00031D522A0A30640203185C2A64085A3E6F
:1004AC0084008001E40A0319E50A492AE60A0319C3
:1004BC00E70AE401E501D32A27082E3A031DBC2ADA
:1004CC000130EF001A200C30EF001A20E401E50196
:1004DC0080306506F00080307002031D772A0A30E8
:1004EC0064020318942A0A30F0000030F100660808
:1004FC00F4006708F50046212830F00764087007FF
:10050C00F10064085A3E84000008F0007108840071
:10051C0070088000E40A0319E50A6E2A0230FB0019
:10052C000430FC00BA30FD00FD0B9A2AFC0B9A2A11
:10053C00FB0B9A2A0000E401E50180306506F0000F
:10054C0080307002031DAC2A0A3064020318B62AEC
:10055C0064085A3E84008001E40A0319E50AA32AC0
:10056C00E60A0319E70AE401E501D42AE401E501EE
:10057C0080306506F00080307002031DC72A0A30F7
:10058C0064020318D12A64085A3E84008001E40AEC
:10059C000319E50ABE2AE401E501E1290130EF0067
:1005AC001A200C30EF001A200130EA000130EB0069
:1005BC002030EC00872001306602E8000030031C7C
:1005CC00013E6702E900E401E50180306506F000B8
:1005DC0080307002031DF42A1430640203180A2BB5
:1005EC000130EF001A200C30EF001A200130EA0025
:1005FC006408EB006408283E84000008EC007121BC
:0A060C00E60A0319E70AEB2A0A2B9D
:04400E00F22F000786
:00000001FF
