:0200000058287E
:0E0006008312031328088A00270882000800CE
:10001400831603139818102800000A2883122C084A
:040024009900080037
:100028008316031398169030831298008316871747
:10003800071383128C1E23281A08F0001D280800B5
:10004800831203131A08F100981C2C28181218168A
:060058007108F000080031
:10005E0003208A110A128000840AA70A0319A80A2B
:08006E00F003031D2F28080018
:1000760083120313AB01290884000008AA002A088A
:10008600003A031950282A08AC000A20AB0A2B08AC
:0C009600290784000008AA004228080086
:0E00A2000030831203138C1A0130F0000800A6
:1000B000533083120313A0007430A1006130A200FA
:1000C0007230A3007430A400A501831603178801C1
:1000D0008901831287138813333083160313990021
:1000E000181514208230FC00DD30FD00FD0B762851
:1000F000FC0B7628000000002030A9003B200A30CD
:10010000AC000A200D30AC000A2051207008031901
:100110008F2824207008A6007008AC000A208528CB
:02012000902825
:04400E00F22F000786
:00000001FF
