:02000000852950
:06000600000000000800EC
:0E000C00213083120313FD00FD0B0A280800AB
:10001A000F3083120313FC004730FD00FD0B132839
:0A002A00FC0B132800000000080082
:1000340083120313CB1B20288611212886154B1B02
:100044002528061126280615CB1A2A2886102B28BF
:1000540086144B1A2F280610302806144518342805
:10006400061635280612861603208612CB193C285C
:1000740086113D2886154B1941280611422806157C
:10008400CB1846288610472886144B184B28061090
:100094004C280614451850280616512806128616B0
:1000A40003208612451C58280D20592806200800D4
:0E00B4008312031340088A003F0882000800F0
:1000C2000E3083120313FD00FD0B652800000800AB
:1000D2008312031345104A08CB001A204514080066
:1000E2008328803083120313C6009628C030C600CE
:1000F20096289430C6009628D430C60096288030C0
:10010200C6009628831203134608013A031972287F
:100112004608023A031977284608033A03197A284F
:100122004608043A03197D2880284703F000460850
:10013200F0077008C6007008CB001A204510C901EC
:1001420049084807840000080319AF2849084807EE
:1001520084000008CA006920C90AA12845140800C1
:10016200831603139816903083129800831687170C
:10017200071383128C1EC0281A08F000BA28080040
:100182005A208A110A128000840ABF0A0319C00A7F
:08019200F003031DC128080061
:10019A00831203134608393C031CDA28303046021E
:0E01AA00031CDA280130F000DB28F001080009
:0E01B8000030831203138C1A0130F00008008F
:1001C600831203134608840000080319F72846081B
:1001D60084000008F1004708840071080006031D2A
:1001E600F728C60AC70AE328460884000008F00074
:1001F600470884000008F002F101031CF10308001F
:10020600803083120313C700C60947080319212942
:1002160047084605F10071080130031D0030F00063
:1002260070181729851218298516032003208515AD
:0E023600612085116120C70CC713082908003C
:100244008316031305168512851183120512851270
:040254008511080008
:1002580083160313861206120610861006118611DD
:1002680083128612061286110611861006100D20BA
:100278000D200D20861406148616032086120D20E4
:100288008616032086120D208616032086120D205E
:1002980006108616032086120D2086160320861265
:1002A800861086158616032086120D2086110614E0
:1002B80086160320861206108616032086120D2045
:1002C80086160320861206148616032086120D2031
:1002D800061086160320861286150615861406143F
:0C02E8008616032086120D204514080025
:1002F400831203131A08F100981C82291812181685
:060304007108F000080082
:10030A00831603178801890183128713881303133D
:10031A00C201C301C101BA01BB01B801B90122215D
:10032A002C210C30CB001A200130CB001A2033309C
:10033A00831699001815B1208230FC00DD30FD00CB
:10034A00FD0BA529FC0BA52900000000DC20700884
:10035A000319272A7A217008BC0000304306031DBE
:10036A00B82903304206031DFE293C08C600CD20E9
:10037A007008031DFD29C201C3014408B4003D08E9
:10038A00B5003E08B6003A08203E840034308000AA
:10039A000130C6000130C7003430C8007120BA0AE3
:1003AA000319BB0AC10AB801B90180303906F00045
:1003BA0080307002031DE329143038020318FD2926
:1003CA003808203E84000008C6003430C700E32005
:1003DA0000307106031DF32900307006031DF92948
:1003EA004108C6000321FD29B80A0319B90ADA2906
:1003FA00272A3C08C600CD2070080319272A003096
:10040A004306031D0A2A00304206031D0F2A3C0830
:10041A00C400242A00304306031D152A013042066F
:10042A00031D1A2A3C08BD00242A00304306031D76
:10043A00202A02304206031D242A3C08BE00C20AB2
:08044A000319C30AAB29282A9B
:04400E00F22F000786
:00000001FF
