:0200000056297F
:0E000600213083120313FD00FD0B07280800B4
:06001400000000000800DE
:10001A000F3083120313FC004730FD00FD0B132839
:0A002A00FC0B132800000000080082
:1000340083120313CB1B20288611212886154B1B02
:100044002528061126280615CB1A2A2886102B28BF
:1000540086144B1A2F280610302806142B1834281F
:1000640006163528061286160A208612CB193C2855
:1000740086113D2886154B1941280611422806157C
:10008400CB1846288610472886144B184B28061090
:100094004C2806142B1850280616512806128616CA
:1000A4000A2086122B1C58280D20592803200800EA
:1000B400831203132B104A08CB001A202B140800B8
:0E00C4008312031343088A00420882000800DA
:1000D200831203134A087A3C031C762861304A02D1
:0E00E200031C76280130F0007728F00108009A
:1000F000831203134A085A3C031C852841304A02E4
:0E010000031C85280130F0008628F00108005D
:10010E009928803083120313C600AC28C030C60075
:10011E00AC289430C600AC28D430C600AC28803051
:10012E00C600AC28831203134608013A0319882827
:10013E004608023A03198D284608033A03199028F7
:10014E004608043A0319932896284703F0004608F8
:10015E00F0077008C6007008CB001A202B10C901DA
:10016E0049084807840000080319C52849084807AC
:10017E0084000008CA005A20C90AB7282B140800A8
:10018E0062208A110A128000840AC20A0319C30A65
:08019E00F003031DC72808004F
:1001A600831203134608CA0069207008031DE3285A
:1001B6004608CA0078207008031DE328F001E528E8
:0601C6000130F00008000A
:1001CC00831203131A08F100981CEE281812181643
:0601DC007108F0000800AC
:0E01E2000030831203138C1A0130F000080065
:1001F0008316031386120612061086100611861146
:1002000083128612061286110611861006100D2022
:100210000D200D208614061486160A2086120D2045
:1002200086160A2086120D2086160A2086120D20B8
:10023000061086160A2086120D2086160A208612BF
:100240008610861586160A2086120D208611061441
:1002500086160A208612061086160A2086120D209F
:1002600086160A208612061486160A2086120D208B
:10027000061086160A2086128615061586140614A0
:0C02800086160A2086120D202B140800A0
:10028C0083160313981690308312980083168717E1
:10029C00071383128C1E55291A08F0004F290800E9
:1002AC00831603178801890183128713881303139C
:1002BC00C001C101C401C501F8200130CB001A20D6
:1002CC000C30CB001A2033308316990018154621B8
:1002DC008230FC00DD30FD00FD0B7229FC0B722915
:1002EC0000000000F12070080319DE29E6207008D8
:1002FC00AA007008C600D320700803198E29440880
:10030C00203E84002A088000C40A0319C50ADE298D
:10031C002A08203A031997292A082E3A03199729F3
:10032C00C7290130CB001A200C30CB001A20400812
:10033C002C3E8400203080000130C6000130C70004
:10034C0040082C3E84000008C8008720C401C50169
:10035C0080304506F00080307002031DB7290A304A
:10036C0044020318C1294408203E84008001C40AB9
:10037C000319C50AAE29C00A0319C10AC401C50173
:10038C00DE29C401C50180304506F00080307002C2
:10039C00031DD2290A3044020318DC294408203EEC
:1003AC0084008001C40A0319C50AC929C401C50106
:0403BC007829DF2994
:04400E00F22F000786
:00000001FF
