:02000000842A50
:0E000600213083120313FD00FD0B07280800B4
:100014000F3083120313FC004730FD00FD0B102842
:0A002400FC0B10280000000008008B
:06002E00000000000800C4
:10003400831203179E1B20288611212886151E1B58
:1000440025280611262806159E1A2A2886102B28EC
:1000540086141E1A2F280610302806140313561867
:100064003528061636280612861617208612031718
:100074009E193E2886113F2886151E19432806110D
:10008400442806159E1848288610492886141E18E8
:100094004D2806104E280614031356185328061626
:1000A40054280612861617208612561C5B280A202E
:0600B4005C280320080097
:1000BA0083120313F801F9011030FC00710DF80DD9
:1000CA00F90D7408F8027508031C750FF902031874
:1000DA0075287408F80775080318750FF9070310CF
:0A00EA00F00DF10DFC0B6328080077
:1000F400831203135610031719089E001A2056146E
:020104000800F1
:0E0106008312031339088A00380882000800AB
:10011400831203179C0105301C02031898281C083D
:100124001B078400203080009C0A8D281C081B07B4
:10013400840080019C031C081B079D000A30F40006
:10014400F5011908F0001A08F1005D207808F000A4
:100154007908F1003030F00703171D088400700897
:1001640080000A30F400F5011908F0001A08F100C3
:100174005D2070080317990071089A000030710619
:10018400031DC62800307006031DC928CB289C0314
:040194009D2808009A
:10019800DE288030831203179000F128C0309000C9
:1001A800F12894309000F128D4309000F128803064
:1001B8009000F128831203171008013A0319CD287B
:1001C8001008023A0319D2281008033A0319D5284F
:1001D8001008043A0319D828DB281103F000100886
:1001E800F0077008900003135614700803179E0058
:1001F8001A205610031712089E001A2056140800D9
:1002080083120313FB01FA01F9018030F800F10CA5
:10021800F00C031C18297408F90775080318750FE2
:10022800FA070318FB0A0310F01F20297408FA07BD
:1002380075080318750FFB07FB0CFA0CF90CF80C82
:10024800031C0B297B08F3007A08F2007908F100F7
:060258007808F000080028
:10025E008312031795019601100897001108980054
:10026E0080301106F00080307002031D40290030EE
:10027E00100203184E290130950000309600100828
:10028E00003C97001108031C013E980198021708C4
:10029E00990018089A0012089B008A2006309300D5
:1002AE00003094001408003C031D5F291308003C25
:1002BE0003187A2913081207F20001301302F00016
:1002CE000030031C013E1402F10070081207840076
:1002DE000008F0007208840070088000013093025C
:1002EE00031C94035929120884002030800015083D
:1002FE001604031998299301940113081207840018
:10030E000008203A031D8F29930A0319940A8429A1
:10031E0001309302031C94031308120784002D303E
:04032E008000080043
:100332008316031386120612061086100611861102
:1003420083128612061286110611861006100A20E2
:100352000A200A20861406148616172086120A20FE
:100362008616172086120A208616172086120A2061
:1003720006108616172086120A2086161720861265
:10038200861086158616172086120A2086110614F4
:1003920086161720861206108616172086120A2045
:1003A20086161720861206148616172086120A2031
:1003B2000610861617208612861506158614061450
:0C03C2008616172086120A205614080028
:1003CE00831203131A08F100981CEF29181218163D
:0603DE007108F0000800A8
:1003E40083120317910192011008F2001008F30020
:1003F400720884000008203A031D052A110812041B
:10040400031D052A122A013091000030920072085F
:1004140084000008F0007308840070088000F30A68
:100424007208F100F20A710884000008003A031D02
:08043400FA291008F00008008D
:10043C00302A8030831203179000432AC03090007A
:10044C00432A94309000432AD4309000432A8030C1
:10045C009000432A831203171008013A03191F2A2C
:10046C001008023A0319242A1008033A0319272A00
:10047C001008043A03192A2A2D2A1103F000100837
:10048C00F0077008900070089E001A205610031791
:10049C009301130812078400000803195E2A13083D
:1004AC0012078400000899007A200317930A4F2A38
:0604BC00031356140800B2
:1004C20083208A110A128000840AB80A0319B90A21
:0804D200F003031D612A08007C
:1004DA008316031398169030831298008316871791
:1004EA00071383128C1E7C2A1A08F000762A080049
:0E04FA000030831203138C1A0130F00008004A
:1005080083120313A001A101A201A301A401A50163
:10051800A601A701A801A901AA01AB01AC01AD017F
:10052800AE01AF0183160317880189013330031325
:10053800990018156D220230FB000430FC00BA3017
:10054800FD00FD0BA52AFC0BA52AFB0BA52A000024
:10055800B001B101B601B701B401B501B201B301EF
:10056800EC01ED01EA01EB010130E8000030E9009F
:100578007D2270080319032BE7217008EE0070082C
:10058800203A031DCD2AB601B701B00A0319B10AF2
:10059800032B6E082E3A031DD52AB00A0319B10A97
:1005A800042B0A30F0000030F1003008F400310864
:1005B800F5000421A030F0073608700784006E08A3
:1005C80080003008F0003108F100F00DF10D7010D6
:1005D8007008203EF200720884000008F000840AC7
:1005E8000008F100F00A0319F10A72088400700883
:1005F80080007108840A8000B60A0319B70ABC2A69
:1006080099210C3003179E001A20013003179E0011
:100618001A203008D4003108D500B001B10180306B
:100628003106F00080307002031D1C2B05303002AB
:1006380003182F2B3008F0003108F100F00DF10DF0
:1006480070107008443E84008001840A8001B00A5A
:100658000319B10A132BB001B10180303106F00043
:10066800803055067002031D3B2B540830020318D6
:10067800342CEC01ED0180306D06F0008030700202
:10068800031D482B0A306C020318522B6C083A3EA3
:1006980084008001EC0A0319ED0A3F2BB601B7016B
:1006A8003008F0003108F100F00DF10D70107008FD
:1006B800203E84000008F100840A0008F20080301F
:1006C8003706F000803072067002031D6D2B71082A
:1006D80036020318A42B0130031790000313360ABF
:1006E800031791000A30F0000030F10003133008BE
:1006F800F4003108F5000421A030F007360870072F
:100708008400000803179200CC2036083A3EEF0018
:100718000A30F0000030F1003008F4003108F5002C
:100728000421A030F0073608700784000008F000A4
:100738006F08840070088000B60A0319B70A542BA2
:100748003430FC00F130FD00FD0BA82BFC0BA82B6E
:10075800000000000C3003179E001A200130031718
:100768009E001A20B401B50180303506F0008030B3
:1007780055067002031DC22B540834020318302C8E
:100788000130E8000030E900B201B3013408F0009C
:100798003508F100F00DF10D70107008203E84004E
:1007A8000008F100840A0008F20080303306F000E7
:1007B800803072067002031DE32B710832020318A1
:1007C800082C32083A3E84000008EF000A30F00096
:1007D8000030F1003408F4003508F5000421A03099
:1007E800F0073208700784006F080006031D012C0B
:1007F8000130E8000030E900042CE801E901082C88
:10080800B20A0319B30ACA2B00306906031D0E2C5D
:1008180001306806031D2C2C3408F0003508F1005F
:10082800F00DF10D70107008443EF200720884005B
:100838000008013EF00000300318013E840A00075A
:10084800F10072088400700880007108840A800032
:10085800B40A0319B50AB82BB00A0319B10A312B27
:10086800B001B10180303106F000803055067002C9
:10087800031D402C540830020318C92C0C300317F0
:100888009E001A20013003179E001A20B601B701F6
:100898003008F0003108F100F00DF10D701070080B
:1008A800203E84000008F100840A0008F20080302D
:1008B8003706F000803072067002031D652C71083F
:1008C800360203189C2C0130031790000313360AD4
:1008D800031791000A30F0000030F10003133008CC
:1008E800F4003108F5000421A030F007360870073D
:1008F8008400000803179200CC2036083A3EEF0027
:100908000A30F0000030F1003008F4003108F5003A
:100918000421A030F0073608700784000008F000B2
:100928006F08840070088000B60A0319B70A4C2CB7
:100938003008F0003108F100F00DF10D701070086A
:10094800443E8400000803179000840A00089100C0
:10095800583092002F2158309000F221700803136C
:10096800D700023003179000013091007008920000
:100978001E224E30FC00EB30FD00FD0BC12CFC0BA1
:0C098800C12CB00A0319B10A362CC92C8E
:04400E00F22F000786
:00000001FF
