:0200000056297F
:10000800FF00030E8301C8000A08C9008A017008AE
:10001800A00000303306031D132800303206031DEC
:100028001928BF0A0319C00A1C28C10A0319C20AE1
:10003800EC308100A0308B002008F00049088A00CD
:0A004800480E8300FF0E7F0E090032
:0E005200213083120313FD00FD0B2D28080042
:100060000F3083120313FC004730FD00FD0B3628D0
:0A007000FC0B362800000000080019
:06007A0000000000080078
:1000800083120313CF1B46288511472885154F1B64
:100090004B2805114C280515CF1A502885105128DA
:1000A00085144F1A552805105628051443185A2848
:1000B00005165B28051285163D208512CF1962288A
:1000C0008511632885154F196728051168280515BE
:1000D000CF186C2885106D2885144F1871280510CD
:1000E00072280514431876280516772805128516F8
:1000F0003D208512431C7E2830207F2829200800BF
:100100008312031343104E08CF004020431408000D
:0E011000831203133C088A003B08820008009B
:10011E00831603138512051205108510051185111E
:10012E0083128512051285110511851005103020D8
:10013E00302030208514051485163D208512302080
:10014E0085163D208512302085163D2085123020E3
:10015E00051085163D208512302085163D2085120E
:10016E008510851585163D208512302085110514C4
:10017E0085163D208512051085163D2085123020EE
:10018E0085163D208512051485163D2085123020DA
:10019E00051085163D208512851505158514051447
:0C01AE0085163D20851230204314080007
:1001BA00831203134A0803178D0083168C130C1439
:0801CA0083120C08F00008008C
:1001D200FB28803083120313CA000E29C030CA00E4
:1001E2000E299430CA000E29D430CA000E2980305C
:1001F200CA000E29831203134A08013A0319EA2896
:100202004A08023A0319EF284A08033A0319F22866
:100212004A08043A0319F528F8284B03F0004A0863
:10022200F0077008CA007008CF0040204310CD01CB
:100232004D084C0784000008031927294D084C0774
:1002420084000008CE008020CD0A1929431408003A
:10025200831603178C1C2F290000292983120313EC
:100262004A0803178D0003134B0803178C008316EB
:100272008C130C150B08F0008B1355308D00AA302F
:100282008D008C14F01B47298B1348298B170C11F6
:02029200080062
:1002940088208A110A128000840ABB0A0319BC0A46
:0802A400F003031D4A290800C4
:1002AC00503083120313A1006F30A2007030A300F2
:1002BC007530A4007330A5007430A6002430A7005C
:1002CC00A8014730A9006F30AA006C30AB00653034
:1002DC00AC006D30AD002430AE00AF01B001B10107
:1002EC00B201B3014730B4005230B5004530B6000E
:1002FC005330B7004B30B8004130B900BA01831607
:10030C00031788018901213083120313BD002930A2
:10031C00BE003430C5003430FC00F130FD00FD0B64
:10032C009529FC0B952900000000C601C7018030FF
:10033C004706F00080307002031DA62906304602E5
:10034C000318C0294608CA0046083D078400000867
:10035C00CB0029213430FC00F130FD00FD0BB42919
:10036C00FC0BB4290000000083120313C60A031906
:10037C00C70A9D293430FC00F130FD00FD0BC42967
:10038C00FC0BC42900000000C601C70180304706E1
:10039C00F00080307002031DD52905304602031889
:1003AC00F0294608203ECA0046083E078400000893
:1003BC00CB0029213430FC00F130FD00FD0BE42989
:1003CC00FC0BE4290000000083120313C60A031976
:1003DC00C70ACC29C601C70180304706F00080301F
:1003EC007002031DFB290530460203180F2A46082C
:1003FC00CA00DD2070080313C400B00A0319B10A47
:10040C0046083D07840070088000C60A0319C70A15
:10041C00F229C601C70180304706F0008030700217
:10042C00031D1A2A0430460203182F2A4608203EC0
:10043C00CA00DD2070080313C400B00A0319B10A06
:10044C0046083E07840070088000C60A0319C70AD4
:10045C00112A863083168100EC3083128100A03083
:10046C008B00BF01C001C101C2018F200C30CF0035
:10047C0040200130CF00402000303306031D482AB5
:10048C0000303206031D652A00304002031D502A3D
:10049C000C303F02031C652ABF01C0010C30CF0099
:1004AC0040200130CF0040200130CA000130CB0089
:1004BC003D08CC00E9200130B2000030B300003020
:1004CC003306031D6B2A01303206031D862A0030C9
:1004DC004202031D732A10304102031C862AC101FB
:1004EC00C2010C30CF0040200130CF004020023040
:1004FC00CA000130CB003E08CC00E920B201B301A8
:04050C00422A872ACE
:04400E00F22F000786
:00000001FF
