:020000001E29B7
:0E000600213083120313FD00FD0B07280800B4
:100014000F3083120313FC004730FD00FD0B102842
:0A002400FC0B10280000000008008B
:06002E00000000000800C4
:1000340083120313E61B2028861121288615661BCC
:100044002528061126280615E61A2A2886102B28A4
:100054008614661A2F280610302806144A183428E5
:10006400061635280612861617208612E6193C282D
:1000740086113D2886156619412806114228061561
:10008400E618462886104728861466184B2806105A
:100094004C2806144A1850280616512806128616AB
:1000A400172086124A1C58280A20592803200800C1
:0E00B4008312031360088A005F0882000800B0
:1000C200831203134A106508E6001A204A14080036
:1000D2007B28803083120313E1008E28C030E100B8
:1000E2008E289430E1008E28D430E1008E288030B2
:1000F200E1008E28831203136108013A03196A286A
:100102006108023A03196F286108033A0319722839
:100112006108043A0319752878286203F00061081F
:10012200F0077008E1007008E6001A204A10E401A6
:1001320064086307840000080319A728640863079A
:1001420084000008E5006120E40A99284A140800A6
:10015200831203136108F2007208F100F20A6208C6
:10016200F000E20A700884000008F00071088400C0
:10017200700880007108840000080319C128AD28A6
:060182006108F000080016
:100188005A208A110A128000840ADF0A0319E00A39
:08019800F003031DC428080058
:1001A0008316031386120612061086100611861196
:1001B00083128612061286110611861006100A2076
:1001C0000A200A20861406148616172086120A2092
:1001D0008616172086120A208616172086120A20F5
:1001E00006108616172086120A20861617208612F9
:1001F000861086158616172086120A208611061488
:1002000086161720861206108616172086120A20D8
:1002100086161720861206148616172086120A20C4
:1002200006108616172086128615061586140614E3
:0C0230008616172086120A204A140800C7
:10023C00443083120313A0006530A1006D30A2007E
:10024C006F30A3002030A4007430A5006530A600E8
:10025C007830A7007430A800A9015330AA0065308B
:10026C00AB006330AC006F30AD006E30AE0064306C
:10027C00AF002030B0006C30B1006930B2006E308D
:10028C00B3006530B400B5018316031788018901EA
:10029C00D0200C30E6001A200130E6001A200C3079
:1002AC00E6001A200130E6001A204B30E100203025
:1002BC00E200A9200130E1000130E2004B30E30004
:1002CC0069203630E1002A30E200A9200230E1003A
:0C02DC000130E2003630E3006920732995
:04400E00F22F000786
:00000001FF
