:02000000F029E5
:10000800FF00030E8301D4000A08D5008A01700896
:10001800A00000303A06031D132800303906031DDE
:100028001928D20A0319D30A1C28CE0A0319CF0AA1
:1000380006308100A0308B002008F00055088A00A7
:0A004800540E8300FF0E7F0E090026
:06005200000000000800A0
:0E005800213083120313FD00FD0B3028080039
:100066000F3083120313FC004730FD00FD0B3928C7
:0A007600FC0B392800000000080010
:1000800083120313F801F9011030FC00710DF80D13
:10009000F90D7408F8027508031C750FF9020318AE
:1000A00058287408F80775080318750FF907031026
:0A00B000F00DF10DFC0B46280800CE
:1000BA0083120313E41B6328851164288515641BC6
:1000CA006828051169280515E41A6D2885106E2817
:1000DA008514641A72280510732805144D18772898
:1000EA00051678280512851629208512E4197F2815
:1000FA008511802885156419842805118528051518
:10010A00E418892885108A28851464188E28051011
:10011A008F2805144D18932805169428051285165C
:10012A00292085124D1C9B2833209C282C2008004E
:10013A00831203134D105F08E4005D204D1408007C
:0E014A00831203134B088A004A088200080043
:1001580083120313E201053062020318BA28620809
:100168006107840020308000E20AAF286208610736
:1001780084008001E20362086107E3000A30F400AA
:10018800F5015F08F0006008F10040207808F000F1
:100198007908F1003030F0076308840070088000A7
:1001A8000A30F400F5015F08F0006008F100402013
:1001B8007008DF007108E00000307106031DE628B2
:1001C80000307006031DE928EB28E203BF28080069
:1001D80083120313DB01DC015608DD005708DE003B
:1001E80080305706F00080307002031DFD28003073
:1001F800560203180B290130DB000030DC005608DA
:10020800003CDD005708031C013EDE01DE025D08EC
:10021800DF005E08E0005808E100AC200630D90095
:100228000030DA005A08003C031D1C295908003C1C
:100238000318372959085807F20001305902F0000D
:100248000030031C013E5A02F10070085807840070
:100258000008F00072088400700880000130D9029C
:10026800031CDA03162958088400203080005B0834
:100278005C0403195529D901DA0159085807840083
:100288000008203A031D4C29D90A0319DA0A412922
:100298000130D902031CDA035908580784002D30AD
:0402A80080000800CA
:1002AC006829803083120313D6007B29C030D60016
:1002BC007B299430D6007B29D430D6007B29803022
:1002CC00D6007B29831203135608013A03195729C8
:1002DC005608023A03195C295608033A03195F2998
:1002EC005608043A0319622965295703F000560889
:1002FC00F0077008D6007008E4005D204D10D9019D
:10030C0059085807840000080319942959085807FC
:10031C0084000008DF009D20D90A86294D140800AE
:10032C00A5208A110A128000840ACA0A0319CB0A72
:08033C00F003031D96290800DF
:1003440083160313851205120510851005118511F6
:1003540083128512051285110511851005103320AD
:100364003320332085140514851629208512332063
:1003740085162920851233208516292085123320DD
:10038400051085162920851233208516292085120B
:1003940085108515851629208512332085110514AD
:1003A40085162920851205108516292085123320EB
:1003B40085162920851205148516292085123320D7
:1003C4000510851629208512851505158514051433
:0C03D40085162920851233204D140800E6
:1003E0009822831603178801890121308312031391
:1003F000C9003B30D0004230D100853083168100E7
:10040000063083128100A0308B00D201D301CE01CF
:10041000CF01A2210C30E4005D200130E4005D201A
:100420000130D6000330D7002B30D80056212908E0
:10043000D6002A08D7004C30D800EC200230D60075
:100440000130D7004C30D800562100303A06031D49
:100450002B2A00303906031D482A00305302031DA1
:10046000332A28305202031C482AD201D3010C300F
:10047000E4005D200130E4005D200130D600013051
:10048000D7004908D80056210130B9000030BA0021
:1004900000303A06031D4E2A01303906031D692A31
:1004A00000304F02031D562A07304E02031C692AF2
:1004B000CE01CF010C30E4005D200130E4005D206E
:1004C0000230D6000130D7005008D8005621B901BB
:0604D000BA01252A6A2A88
:1005300021308400283083120313F0007030CA0089
:080540000230CB0096210800F7
:1004E00050346F34703475347334743424340034BD
:0404F0007B34003425
:1004F400543465346B346F34763465346E3420345C
:0C050400623472346F346A343A340034CC
:04051000003400347F
:0E05140047346F346C3465346D342434003455
:0E05220047345234453453344B3441340034A2
:04400E00F22F000786
:00000001FF
