:02000000612974
:10000800FF00030E8301C6000A08C7008A010B1D02
:1000180012280B11BF0A0319C00A810147088A0078
:0A002800460E8300FF0E7F0E090054
:0E003200213083120313FD00FD0B1D28080072
:100040000F3083120313FC004730FD00FD0B262800
:0A005000FC0B262800000000080049
:06005A0000000000080098
:1000600083120313CD1B36288511372885154D1BA8
:100070003B2805113C280515CD1A4028851041283C
:1000800085144D1A4528051046280514BE184A281F
:1000900005164B28051285162D208512CD195228DC
:1000A0008511532885154D19572805115828051510
:1000B000CD185C2885105D2885144D186128051021
:1000C00062280514BE1866280516672805128516CD
:1000D0002D208512BE1C6E2820206F2819200800B4
:1000E00083120313BE104C08CD003020BE1408004C
:0E00F000831203133B088A003A0882000800BE
:1000FE00831203134808F2007208F100F20A49084D
:10010E00F000C90A700884000008F000710884002D
:10011E00700880007108840000080319972883284E
:06012E004808F000080083
:100134008316031385120512051085100511851108
:1001440083128512051285110511851005102020D2
:10015400202020208514051485162D2085122020AA
:1001640085162D208512202085162D20851220200D
:10017400051085162D208512202085162D20851228
:100184008510851585162D208512202085110514CE
:1001940085162D208512051085162D208512202008
:1001A40085162D208512051485162D2085122020F4
:1001B400051085162D208512851505158514051441
:0C01C40085162D2085122020BE14080096
:1001D00083120313480803178D0083168C130C1425
:0801E00083120C08F000080076
:1001E8000629803083120313C8001929C030C800BB
:1001F80019299430C8001929D430C8001929803029
:10020800C8001929831203134808013A0319F5286D
:100218004808023A0319FA284808033A0319FD283E
:100228004808043A0319002903294903F00048083B
:10023800F0077008C8007008CD003020BE10CB0150
:100248004B084A0784000008031932294B084A075B
:1002580084000008CC007020CB0A2429BE140800B2
:1002680078208A110A128000840ABA0A0319BB0A84
:08027800F003031D3429080006
:10028000831603178C1C4629000040298312031390
:10029000480803178D000313490803178C008316C1
:1002A0008C130C150B08F0008B1355308D00AA3001
:1002B0008D008C14F01B5E298B135F298B170C119A
:0202C000080034
:1002C200473083120313A0007230A1006530A200F0
:1002D2007330A3006830A4006B30A5006130A60023
:1002E200A7015030A8006F30A9007030AA00753005
:1002F200AB007330AC007430AD003130AE0024304E
:10030200AF00B0015030B1006F30B2007030B300B6
:100312007530B4007330B5007430B6003230B700B7
:100322002430B800B9018630831681000317880192
:10033200890183120313BC01A0308B004208C8005C
:100342002830C9007F204308C8003130C9007F200F
:10035200C401C50180304506F00080307002031DE3
:10036200B429083044020318C4294408C8004408C8
:10037200420784000008C900402183120313C40A03
:100382000319C50AAB29C401C50180304506F00036
:1003920080307002031DCF29083044020318E0297F
:1003A2004408203EC8004408430784000008C900EE
:1003B200402183120313C40A0319C50AC629C401C2
:1003C200C50180304506F00080307002031DEB2924
:1003D200083044020318012A4408C800E8207008C3
:1003E2000313C1007008243A0319FD29BC0A44080A
:1003F2004207840041088000C40A0319C50AE229A1
:10040200C401C50180304506F00080307002031D32
:100412000C2A083044020318232A4408203EC8004C
:10042200E82070080313C1007008243A03191F2A38
:10043200BC0A44084307840041088000C40A031927
:10044200C50A032A9A208030103AF00080303C0618
:10045200700203183F2A0C30CD0030200130CD004D
:1004620030203D08C8002030C9007F200130C8007C
:100472000130C9003D08CA00F420712A3E1C592AE5
:1004820000304002031D472AEB303F020318572A6F
:100492000C30CD0030200130CD0030200130C800BA
:1004A2000130C9004208CA00F420582A3E10702ABE
:1004B20001304002031D5F2A39303F0203186F2AC0
:1004C2000C30CD0030200130CD0030200230C80089
:1004D2000130C9004308CA00F420702A3E143F2AA2
:0204E200712A7D
:04400E00F22F000786
:00000001FF
