:020000001628C0
:0E0006008312031321088A00200882000800DC
:1000140003208A110A128000840AA00A0319A10A83
:08002400F003031D0A28080087
:10002C00053083120313A2000030A30083160317BC
:10003C008801890186018030831203138600013008
:10004C00F2000030F3008030F000803023067002A4
:10005C00031D32282208003C031871280030730657
:10006C00031D3A2801307206031D51280608003C76
:10007C00031849280608F000F00CF013F00CF013EC
:10008C00700886005128F201F3010130860001301E
:10009C00A202031CA30300307306031D5728003073
:1000AC007206031D70280608203C031C66280608EF
:1000BC00F000F00D7010F00D7010700886007028B4
:1000CC000130F2000030F300803086000130A202D3
:0800DC00031CA303292871286D
:04400E00F22F000786
:00000001FF
