:020000001628C0
:0E0006008312031321088A00200882000800DC
:1000140003208A110A128000840AA00A0319A10A83
:08002400F003031D0A28080087
:10002C00053083120313A2000030A30083160317BC
:10003C008801890186018312031386018030F00048
:10004C00803023067002031D2D282208003C031863
:10005C005228803086000608003C03183E2806080B
:10006C00F000F00CF013F00CF0137008860031283F
:10007C00013086000608203C031C4D280608F000C1
:10008C00F00D7010F00D70107008860040280130D3
:0A009C00A202031CA303242852282B
:04400E00F22F000786
:00000001FF
