:02000000432A91
:10000800FF00030E8301E1000A08DF008A010B1DCF
:100018001328DD0A0319DE0A0B11603081005F081E
:0C0028008A00610E8300FF0E7F0E0900AD
:06003400000000000800BE
:10003A000F3083120313FC004730FD00FD0B232809
:0A004A00FC0B232800000000080052
:0E005400213083120313FD00FD0B2E2808003F
:1000620083160313A01B3828831286113A288312A1
:1000720086158316201B40288312061142288312FC
:1000820006158316A01A4828831286104A2883125E
:1000920086148316201A50288312061052288312BF
:1000A20006146018562806165728061286161A20B5
:1000B20086128316A0196028831286116228831281
:1000C2008615831620196828831206116A2883125E
:1000D20006158316A01870288312861072288312C0
:1000E2008614831620187828831206107A28831221
:1000F200061460187E2806167F28061286161A2015
:0E0102008612601C86281D2087282A200800EF
:1001100083120313F801F9011030FC00710DF80D82
:10012000F90D7408F8027508031C750FF90203181D
:10013000A0287408F80775080318750FF90703104D
:0A014000F00DF10DFC0B8E280800F5
:0E014A008312031349088A0048088200080047
:10015800063083120313FD00FD0BB02800000800D1
:1001680083120313EB01ED01EE011030EF000430B0
:100178006E020318E028F03088006F0983168800A3
:100188001A201A200F3083120805F0007008EC00BE
:1001980070080319DA286D08EB006C080319D828D1
:1001A800EC0CEC13EB0AD1280430EE00EF0D6F10C5
:0E01B8000430ED07EE0ABB286B08F0000800CB
:1001C60083120313EE0105306E020318F1286E0840
:1001D6006D07840020308000EE0AE6286E086D0761
:1001E60084008001EE036E086D07EF000A30F4000C
:1001F600F5016B08F0006C08F10088207808F00023
:100206007908F1003030F0076F088400700880002C
:100216000A30F400F5016B08F0006C08F100882044
:100226007008EB007108EC0000307106031D1D29F3
:1002360000307006031D20292229EE03F628080047
:100246008312031360106B088316A000312060141C
:0202560008009E
:10025800B4207008E2000F300805F00003193629B1
:0A026800AC202F296208F000080006
:100272004B29803083120313E2005E29C030E20072
:100282005E299430E2005E29D430E2005E2980309B
:10029200E2005E29831203136208013A03193A2924
:1002A2006208023A03193F296208033A03194229F4
:1002B2006208043A0319452948296303F0006208D9
:1002C200F0077008E20070088316A0003120601069
:1002D200E5016508640784000008031978296508A8
:1002E200640784000008EB002321E50A6A296014F0
:0202F200080002
:1002F40083120313E701E8016208E9006308EA00D6
:1003040080306306F00080307002031D8B290030BA
:100314006202031899290130E7000030E8006208FE
:10032400003CE9006308031C013EEA01EA02690893
:10033400EB006A08EC006408ED00E3200630E500F9
:100344000030E6006608003C031DAA296508003C4D
:100354000318C52965086407F20001306502F0003E
:100364000030031C013E6602F1007008640784003B
:100374000008F00072088400700880000130E50273
:10038400031CE603A4296408840020308000670865
:1003940068040319E329E501E6016508640784009C
:1003A4000008203A031DDA29E50A0319E60ACF29D1
:1003B4000130E502031CE6036508640784002D3060
:0403C40080000800AD
:0A03C800FF308316031388000800BD
:1003D200A5208A110A128000840AC80A0319C90AD0
:0803E200F003031DE9290800E6
:1003EA00831603138612061206108610061186114A
:1003FA0083128612061286110611861006101D2017
:10040A001D201D208614061486161A2086121D2009
:10041A0086161A2086121D2086161A2086121D207C
:10042A00061086161A2086121D2086161A20861293
:10043A008610861586161A2086121D208611061425
:10044A0086161A208612061086161A2086121D2073
:10045A0086161A208612061486161A2086121D205F
:10046A00061086161A208612861506158614061494
:0C047A0086161A2086121D20601408004F
:10048600962384308316031381000317880189019C
:10049600831287138813E421F5210230FB00043010
:1004A600FC00BA30FD00FD0B562AFC0B562AFB0B4E
:1004B600562A00000C308316A00031200130831626
:1004C600A000312060308100A0308B00DD01DE010C
:1004D600DB01DC018030F00080305C067002031D19
:1004E600762A5B08093C031C582B5B08E2005C0873
:1004F600E3005430E4007A210130E2000130E300E9
:100506002030E40039210230E2000130E3005430AB
:10051600E4003921DD01DE012C217008DA0000300B
:100526005E02031D982A0A305D02031CB02A0C30B5
:100536008316A000312001308316A000312001303F
:10054600E2000130E3003930E40039210230E200F4
:100556000130E3002F30E40039215A0803198F2AAD
:10056600142B5B084A3E840061308000542B5B08E4
:100576004A3E840065308000542B5B084A3E840066
:1005860069308000542B5B084A3E84006D30800041
:10059600542B5B084A3E840042308000542B5B0893
:1005A6004A3E840046308000542B5B084A3E840055
:1005B6004A308000542B5B084A3E84004E3080004F
:1005C600542B5B084A3E840063308000542B5B0842
:1005D6004A3E840067308000542B5B084A3E840004
:1005E6006B308000542B5B084A3E84006F308000DD
:1005F600542B5B084A3E840064308000542B5B0811
:100606004A3E840068308000542B5B084A3E8400D2
:100616006C308000542B5B084A3E840070308000AA
:10062600542B5A08013A0319B42A5A08023A0319F4
:10063600BA2A5A08033A0319C02A5A08043A03196F
:10064600C62A5A08053A0319CC2A5A08063A031943
:10065600D22A5A08073A0319D82A5A08083A031917
:10066600DE2A5A08093A0319E42A5A080A3A0319EB
:10067600EA2A5A080B3A0319F02A5A080C3A0319BF
:10068600F62A5A080D3A0319FC2A5A080E3A031993
:10069600022B5A080F3A0319082B5A08103A031965
:1006A6000E2BDB0A0319DC0A6D2A0C308316A00018
:1006B600312001308316A00031200130E2000130E4
:0A06C600E3004A30E4003921672BFD
:10072C0020308400283083120313F0006D30C80091
:08073C000330C900E9210800A7
:1006DA0076346E346534733469342034733469344F
:0E06EA0066347234613420347A346134003462
:1006F80050346F34623472347A3461346A34743406
:040708006534003420
:10070C005634723465346D34653474346F3420343B
:0E071C006934733474346534633465340034E6
:04400E00F22F000786
:00000001FF
