:02000000972A3D
:06000600000000000800EC
:10000C000F3083120313FC004730FD00FD0B0C284E
:0A001C00FC0B0C2800000000080097
:0E002600213083120313FD00FD0B1728080084
:1000340083120313D91B2028861121288615591BE6
:100044002528061126280615D91A2A2886102B28B1
:100054008614591A2F2806103028061441183428FB
:10006400061635280612861603208612D9193C284E
:1000740086113D288615591941280611422806156E
:10008400D918462886104728861459184B28061074
:100094004C280614411850280616512806128616B4
:1000A40003208612411C58280620592813200800D2
:1000B40083120313F801F9011030FC00710DF80DDF
:1000C400F90D7408F8027508031C750FF90203187A
:1000D40072287408F80775080318750FF9070310D8
:0A00E400F00DF10DFC0B6028080080
:1000EE00063083120313FD00FD0B7B280000080071
:0E00FE00831203132D088A002C0882000800CC
:10010C0083120313D401D601D7011030D800043068
:10011C0057020318B228F03088005809831688005B
:10012C00032003200F3083120805F0007008D5005F
:10013C0070080319AC285608D40055080319AA28CE
:10014C00D50CD513D40AA3280430D700D80D5810D9
:0E015C000430D607D70A8D285408F00008009A
:10016A000E3083120313FD00FD0BB92800000800AE
:10017A008312031341105408D9001A2041140800AD
:10018A0083120313D701053057020318D3285708DF
:10019A005607840020308000D70AC8285708560717
:1001AA0084008001D70357085607D8000A30F400A4
:1001BA00F5015408F0005508F1005A207808F000BB
:1001CA007908F1003030F007580884007008800080
:1001DA000A30F400F5015408F0005508F1005A20DD
:1001EA007008D4007108D50000307106031DFF287D
:1001FA0000307006031D02290429D703D8280800F5
:10020A0083120313D001D1014B08D2004C08D3004A
:10021A0080304C06F00080307002031D1629003031
:10022A004B02031824290130D0000030D1004B08BA
:10023A00003CD2004C08031C013ED301D3025208F1
:10024A00D4005308D5004D08D600C5200630CE008C
:10025A000030CF004F08003C031D35294E08003CF2
:10026A00031850294E084D07F20001304E02F000E3
:10027A000030031C013E4F02F10070084D07840054
:10028A000008F00072088400700880000130CE0275
:10029A00031CCF032F294D0884002030800050080A
:1002AA00510403196E29CE01CF014E084D0784006F
:1002BA000008203A031D6529CE0A0319CF0A5A29D4
:1002CA000130CE02031CCF034E084D0784002D30A7
:0402DA008000080098
:1002DE00831203134D08F1004E08F2000130CD02D7
:1002EE00031CCE0300307206031D7F2900307106F9
:1002FE0003199A294B0884000008F1004C08840069
:10030E0071080006031997294B0884000008F000B5
:10031E004C0884000008F002F101031CF1039C2933
:0C032E00CB0ACC0A6F29F001F101080095
:10033A00AF29803083120313CB00C229C030CB000F
:10034A00C2299430CB00C229D430CB00C2298030D4
:10035A00CB00C229831203134B08013A03199E29C1
:10036A004B08023A0319A3294B08033A0319A62991
:10037A004B08043A0319A929AC294C03F0004B088D
:10038A00F0077008CB007008D9001A204110CE017E
:10039A004E084D07840000080319DB294E084D0753
:1003AA0084000008D400BD20CE0ACD2941140800DB
:1003BA0086207008CB000F300805F0000319E729E2
:0A03CA007720E0294B08F00008003E
:1003D40083120313CC01CD014B08F2004B08F30048
:1003E400720884000008203A031DFD294C084D04BE
:1003F400031DFD290A2A0130CC000030CD0072080B
:1004040084000008F0007308840070088000F30A78
:100414007208F100F20A710884000008003A031D12
:08042400F2294B08F00008006A
:10042C00C330831203139F05C0309F004B08F000AC
:10043C00F00D7010F00D701070089F0483169F174C
:10044C0083121F14B5209F149F1C2E2A00002A2AE9
:10045C001F101E08F100F00183161E08F004003076
:04046C00F10408008F
:0A047000FF30831603138800080014
:10047A0083160313861206120610861006118611B9
:10048A00831286120612861106118610061006209D
:10049A0006200620861406148616032086120620D5
:1004AA008616032086120620861603208612062048
:1004BA000610861603208612062086160320861248
:1004CA0086108615861603208612062086110614C3
:1004DA008616032086120610861603208612062028
:1004EA008616032086120614861603208612062014
:1004FA00061086160320861286150615861406141B
:0C050A008616032086120620411408000B
:100516007F208A110A128000840AAC0A0319AD0AE8
:08052600F003031D8B2A0800FD
:10052E00543083120313A0006F30A1006330A20079
:10053E006E30A3006130A4002030A5005330A60019
:10054E006930A7006630A8007230A9006130AA0099
:10055E00AB01C401C5018316031788010830890059
:10056E000030831203134306031DBF2A00304206D8
:10057E00031DCA2A0B30CB00162270088312C2004C
:10058E007108C300B72A6430F4000030F500420849
:10059E00F0004308F1005A207808F0007908F100C5
:1005AE007008C6007108C700382203178801890138
:1005BE003D220C30D9001A200130D9001A20C90171
:1005CE00CA0180304A06F00080307002031DF12A05
:1005DE00023049020318582BDD217008C80070083C
:1005EE000319F32A302B49083E3E84003130800037
:1005FE00542B49083E3E840032308000542B49086B
:10060E003E3E840033308000542B49083E3E840029
:10061E0034308000542B49083E3E84003530800033
:10062E00542B49083E3E840036308000542B490836
:10063E003E3E840037308000542B49083E3E8400F5
:10064E0038308000542B49083E3E840039308000FB
:10065E00542B4808013A0319FA2A4808023A03199A
:10066E00002B4808033A0319062B4808043A0319CD
:10067E000C2B4808053A0319122B4808063A0319A1
:10068E00182B4808073A03191E2B4808083A031975
:10069E00242B4808093A03192A2BC90A0319CA0A36
:1006AE00E82A0130CB000130CC003E30CD009D2138
:1006BE004608CB004708CC002E30CD0005212E3049
:1006CE00CB00EA217008C0000230CB000130CC0014
:1006DE007008CD009D210C30D9001A200130D900B0
:1006EE001A203E30CB004008CC000230CD00003046
:1006FE00CE006F2100307106031D872B003070066F
:10070E00031D902B0130CB000130CC002030CD00EA
:04071E009D21902B5E
:04400E00F22F000786
:00000001FF
