:020000006C2969
:0E000600213083120313FD00FD0B07280800B4
:06001400000000000800DE
:10001A000F3083120313FC004730FD00FD0B132839
:0A002A00FC0B132800000000080082
:1000340083120313B81B2028861121288615381B28
:100044002528061126280615B81A2A2886102B28D2
:100054008614381A2F280610302806142F1834282E
:1000640006163528061286160A208612B8193C2868
:1000740086113D288615381941280611422806158F
:10008400B818462886104728861438184B280610B6
:100094004C2806142F1850280616512806128616C6
:1000A4000A2086122F1C58280D20592803200800E6
:1000B400831203132F103708B8001A202F140800D6
:0E00C4008312031331088A00300882000800FE
:0A00D200FF308316031388000800B6
:1000DC008028803083120313B2009328C030B20002
:1000EC0093289430B2009328D430B20093288030F7
:1000FC00B2009328831203133208013A03196F28B4
:10010C003208023A031974283208033A0319772883
:10011C003208043A03197A287D283303F000320898
:10012C00F0077008B2007008B8001A202F10B50143
:10013C0035083407840000080319AC283508340747
:10014C0084000008B7005A20B50A9E282F14080016
:10015C0083120313B201B401B5011030B6000430A0
:10016C0035020318DA28F030880036098316880027
:10017C000A200A200F3083120805F0007008B30023
:10018C0070080319D4283408B20033080319D22894
:10019C00B30CB313B20ACB280430B500B60D36102D
:0E01AC000430B407B50AB5283208F000080088
:1001BA00EF28803083120313B2000229C030B20044
:1001CA0002299430B2000229D430B20002298030C8
:1001DA00B2000229831203133208013A0319DE28F6
:1001EA003208023A0319E3283208033A0319E628C7
:1001FA003208043A0319E928EC283303F0003208DC
:10020A00F0077008B2002F147008B8001A202F10D7
:0A021A003408B8001A202F14080061
:1002240062208A110A128000840AB00A0319B10AF2
:08023400F003031D122908006C
:10023C0083160313861206120610861006118611F9
:10024C0083128612061286110611861006100D20D6
:10025C000D200D208614061486160A2086120D20F9
:10026C0086160A2086120D2086160A2086120D206C
:10027C00061086160A2086120D2086160A20861273
:10028C008610861586160A2086120D2086110614F5
:10029C0086160A208612061086160A2086120D2053
:1002AC0086160A208612061486160A2086120D203F
:1002BC00061086160A208612861506158614061454
:0C02CC0086160A2086120D202F14080050
:1002D800503083120313A0007230A1006930A200CD
:1002E8007430A3006930A4007330A5006E30A600F6
:1002F8006130A7007430A8002030A9006530AA003A
:100308002030AB00AC0169200317880189011E2148
:100318000C30B8001A200130B8001A20AE2070083E
:10032800AE007008031992292030AD000130B200E8
:100338000130B3002D08B4006E200230B200013045
:0C034800B30030302E07B400DD20A929DE
:04400E00F22F000786
:00000001FF
