:02000000DE29F7
:06000600000000000800EC
:10000C000F3083120313FC004730FD00FD0B0C284E
:0A001C00FC0B0C2800000000080097
:0E002600213083120313FD00FD0B1728080084
:1000340083120313DE1B20288611212886155E1BDC
:100044002528061126280615DE1A2A2886102B28AC
:1000540086145E1A2F280610302806143118342806
:10006400061635280612861603208612DE193C2849
:1000740086113D2886155E19412806114228061569
:10008400DE1846288610472886145E184B2806106A
:100094004C280614311850280616512806128616C4
:1000A40003208612311C58280620592813200800E2
:1000B400063083120313FD00FD0B5E2800000800C8
:0E00C4008312031351088A00500882000800BE
:1000D20083120313D901DB01DC011030DD0004308F
:1000E2005C0203189528F03088005D0983168800A9
:1000F200032003200F3083120805F0007008DA0095
:10010200700803198F285B08D9005A0803198D2833
:10011200DA0CDA13D90A86280430DC00DD0D5D1012
:0E0122000430DB07DC0A70285908F0000800E2
:100130008312031331105908DE001A20311408000D
:1001400083120313F801F9011030FC00710DF80D52
:10015000F90D7408F8027508031C750FF9020318ED
:10016000B8287408F80775080318750FF907031005
:0A017000F00DF10DFC0BA6280800AD
:10017A0083120313D701053057020318CB285708F7
:10018A005607840020308000D70AC028570856072F
:10019A0084008001D70357085607D8000A30F400B4
:1001AA00F5015408F0005508F100A0207808F00085
:1001BA007908F1003030F007580884007008800090
:1001CA000A30F400F5015408F0005508F100A020A7
:1001DA007008D4007108D50000307106031DF72895
:1001EA0000307006031DFA28FC28D703D02808001F
:1001FA000F29803083120313D4002229C030D4007F
:10020A0022299430D4002229D430D40022298030E3
:10021A00D4002229831203135408013A0319FE2831
:10022A005408023A031903295408033A0319062900
:10023A005408043A031909290C295503F0005408F3
:10024A00F0077008D4007008DE001A203110D701B8
:10025A00570856078400000803193B295708560710
:10026A0084000008D9009820D70A2D2931140800E3
:10027A0069207008D4000F300805F00003194729D7
:0A028A005A2040295408F000080033
:100294005C29803083120313D4006F29C030D4004A
:1002A4006F299430D4006F29D430D4006F29803062
:1002B400D4006F29831203135408013A03194B29FC
:1002C4005408023A031950295408033A03195329CC
:1002D4005408043A0319562959295503F0005408BF
:1002E400F0077008D40031147008DE001A203110B1
:0A02F4005608DE001A20311408003D
:1002FE008316031386120612061086100611861137
:10030E00831286120612861106118610061006201A
:10031E000620062086140614861603208612062052
:10032E0086160320861206208616032086120620C5
:10033E0006108616032086120620861603208612C5
:10034E008610861586160320861206208611061440
:10035E0086160320861206108616032086120620A5
:10036E008616032086120614861603208612062091
:10037E000610861603208612861506158614061498
:0C038E0086160320861206203114080099
:10039A0062208A110A128000840AD00A0319D10A3B
:0803AA00F003031DCD2908003A
:0A03B200FF308316031388000800D3
:1003BC00203083120313A000A1015430A200693035
:1003CC00A3006D30A4006530A5007330A6003A3050
:1003DC00A700A8014B30A9006530AA007930AB000A
:1003EC002030AC003A30AD00AE01D201D301D9219E
:1003FC000317880189017F210130DE001A200C309F
:10040C00DE001A200130D4000130D5002930D6008E
:10041C00FD200230D4000130D5002230D600FD2062
:10042C00B0013D217008B00070080319172A4E2A3C
:10043C003130B0008E2A3230B0008E2A3330B0000A
:10044C008E2A4130B0008E2A3430B0008E2A3530DE
:10045C00B0008E2A3630B0008E2A4230B0008E2A80
:10046C003730B0008E2A3830B0008E2A3930B000C8
:10047C008E2A4330B0008E2A2A30B0008E2A3030BB
:10048C00B0008E2A2330B0008E2A4430B0008E2A61
:10049C003008013A03191E2A3008023A0319212A9E
:1004AC003008033A0319242A3008043A0319272A7E
:1004BC003008053A03192A2A3008063A03192D2A5E
:1004CC003008073A0319302A3008083A0319332A3E
:1004DC003008093A0319362A30080A3A0319392A1E
:1004EC0030080B3A03193C2A30080C3A03193F2AFE
:1004FC0030080D3A0319422A30080E3A0319452ADE
:10050C0030080F3A0319482A3008103A03194B2ABD
:10051C0030082F060319992A0130D2000030D3007D
:10052C003008AF009C2AD20A0319D30A0130D40038
:10053C000A30D5003008D6004A2100305306031D7E
:10054C00A92AFF305206031DB42AD201D30102306E
:10055C00D4000A30D5002030D600FD205208D4003B
:0E056C005308D5003230D600BD20162ABC2A16
:04400E00F22F000786
:00000001FF
