:02000000B52A1F
:06000600000000000800EC
:10000C000F3083120313FC004730FD00FD0B0C284E
:0A001C00FC0B0C2800000000080097
:0E002600213083120313FD00FD0B1728080084
:1000340083120313EC1B20288611212886156C1BC0
:100044002528061126280615EC1A2A2886102B289E
:1000540086146C1A2F2806103028061443183428E6
:10006400061635280612861603208612EC193C283B
:1000740086113D2886156C1941280611422806155B
:10008400EC1846288610472886146C184B2806104E
:100094004C280614431850280616512806128616B2
:1000A40003208612431C58280620592813200800D0
:1000B40083120313F801F9011030FC00710DF80DDF
:1000C400F90D7408F8027508031C750FF90203187A
:1000D40072287408F80775080318750FF9070310D8
:0A00E400F00DF10DFC0B6028080080
:1000EE000E3083120313FD00FD0B7B280000080069
:1000FE008312031343106708EC001A204314080000
:10010E0083120313EA0105306A02031895286A0860
:10011E006907840020308000EA0A8A286A08690785
:10012E0084008001EA036A086907EB000A30F400D4
:10013E00F5016708F0006808F1005A207808F00011
:10014E007908F1003030F0076B08840070088000E9
:10015E000A30F400F5016708F0006808F1005A2033
:10016E007008E7007108E80000307106031DC12811
:10017E0000307006031DC428C628EA039A2808001A
:10018E00063083120313FD00FD0BCB280000080080
:0E019E008312031342088A0041088200080001
:1001AC0083120313E701E901EA011030EB0004307C
:1001BC006A0203180229F03088006B098316880044
:1001CC00032003200F3083120805F0007008E800AC
:1001DC0070080319FC286908E70068080319FA2855
:1001EC00E80CE813E70AF3280430EA00EB0D6B1077
:0E01FC000430E907EA0ADD286708F000080071
:10020A001729803083120313DE002A29C030DE004A
:10021A002A299430DE002A29D430DE002A298030A7
:10022A00DE002A29831203135E08013A03190629FC
:10023A005E08023A03190B295E08033A03190E29CC
:10024A005E08043A0319112914295F03F0005E08B5
:10025A00F0077008DE007008EC001A204310E10174
:10026A0061086007840000080319432961086007D0
:10027A0084000008E7007F20E10A352943140800BA
:10028A0083120313FB01FA01F9018030F800F10C23
:10029A00F00C031C59297408F90775080318750F1F
:1002AA00FA070318FB0A0310F01F61297408FA07FA
:1002BA0075080318750FFB07FB0CFA0CF90CF80C00
:1002CA00031C4C297B08F3007A08F2007908F10034
:0602DA007808F0000800A6
:1002E00083120313E301E4015E08E5005F08E60002
:1002F00080305F06F00080307002031D81290030DD
:100300005E0203188F290130E3000030E4005E082C
:10031000003CE5005F08031C013EE601E6026508BB
:10032000E7006608E8006008E90087200630E10081
:100330000030E2006208003C031DA0296108003C77
:100340000318BB2961086007F20001306102F00068
:100350000030031C013E6202F10070086007840057
:100360000008F00072088400700880000130E1028B
:10037000031CE2039A29600884002030800063088F
:1003800064040319D929E101E201610860078400CE
:100390000008203A031DD029E10A0319E20AC52901
:1003A0000130E102031CE2036108600784002D3084
:0403B00080000800C1
:1003B400D6207008DE000F300805F0000319E42988
:0A03C400C720DD295E08F0000800E4
:1003CE008316031386120612061086100611861166
:1003DE00831286120612861106118610061006204A
:1003EE000620062086140614861603208612062082
:1003FE0086160320861206208616032086120620F5
:10040E0006108616032086120620861603208612F4
:10041E00861086158616032086120620861106146F
:10042E0086160320861206108616032086120620D4
:10043E0086160320861206148616032086120620C0
:10044E0006108616032086128615061586140614C7
:0C045E00861603208612062043140800B6
:10046A00C330831203139F05C0309F005E08F0005B
:10047A00F00D7010F00D701070089F0483169F170E
:10048A0083121F1477209F149F1C4D2A0000492AAB
:10049A001F101E08F100F00183161E08F004003038
:0404AA00F104080051
:1004AE00831603178C1C5D2A0000572A8312031330
:1004BE005E0803178D0003135F0803178C00831665
:1004CE008C130C150B08F0008B1355308D00AA30D1
:1004DE008D008C14F01B752A8B13762A8B170C113A
:0204EE00080004
:1004F000CF208A110A128000840AC10A0319C20A95
:08050000F003031D782A080036
:0A050800FF3083160313880008007B
:1005120083120313DF01E0015E08F2005E08F300BC
:10052200720884000008203A031D9C2A5F086004B8
:10053200031D9C2AA92A0130DF000030E000720866
:1005420084000008F0007308840070088000F30A39
:100552007208F100F20A710884000008003A031DD3
:08056200912A5E08F000080078
:10056A00563083120313A0006E30A1006530A2003A
:10057A007330A3006F30A4007630A5007430A60053
:10058A006530A7003A30A8002030A900AA014B30F4
:10059A00AB007230AC006130AD006A30AE00AF0122
:1005AA004930B0006D30B1006130B2007430B30030
:1005BA006530B4002030B500B6015030B7006F3056
:1005CA00B8006730B9006F30BA006430BB006F30D2
:1005DA00BC006B30BD00BE01BF01C00103308316F1
:1005EA000317880089010030831203135806031D7C
:1005FA00002B00305706031D0A2BDE013522700836
:10060A008312D7007108D800F82A00305606031D55
:10061A00102B00305506031D1B2B0130DE0035223E
:10062A0070088312D5007108D6000A2B5708D90022
:10063A005808DA002030DE005508DF0057228422ED
:10064A00031788018901E7210C30EC001A200130D8
:10065A00EC001A20DC01DD0180305D06F0008030FC
:10066A0058067002031D3B2B57085C020318852CA1
:10067A00DA217008DB00700803193D2BE72B3F08CD
:10068A00F0004008F1000A30F4000030F50045217E
:10069A007008013EBF0000300318013E7107C00018
:1006AA00272C3F08F0004008F1000A30F40000301F
:1006BA00F500452102307007BF0071080318013E9A
:1006CA00C000272C3F08F0004008F1000A30F4006F
:1006DA000030F500452103307007BF007108031888
:1006EA00013EC000272C272C3F08F0004008F100EB
:1006FA000A30F4000030F500452104307007BF00CD
:10070A0071080318013EC000272C3F08F00040087A
:10071A00F1000A30F4000030F50045210530700779
:10072A00BF0071080318013EC000272C3F08F000E3
:10073A004008F1000A30F4000030F5004521063087
:10074A007007BF0071080318013EC000272C272C30
:10075A003F08F0004008F1000A30F4000030F500CC
:10076A00452107307007BF0071080318013EC00019
:10077A00272C3F08F0004008F1000A30F40000304E
:10078A00F500452108307007BF0071080318013EC3
:10079A00C000272C3F08F0004008F1000A30F4009E
:1007AA000030F500452109307007BF0071080318B1
:1007BA00013EC000272C272C2A30DB00272C272CAF
:1007CA00272C272C5B08013A0319442B5B08023AB1
:1007DA000319562B5B08033A0319672B5B08043A83
:1007EA000319782B5B08053A0319792B5B08063A3B
:1007FA0003198A2B5B08073A03199B2B5B08083AF3
:10080A000319AC2B5B08093A0319AD2B5B080A3AAA
:10081A000319BE2B5B080B3A0319CF2B5B080C3A62
:10082A000319E02B5B080D3A0319E12B5B080E3A1A
:10083A000319E42B5B080F3A0319E52B5B08103AFE
:10084A000319E62B5B082A3A031D3D2B400856067E
:10085A00031D312C55083F06031D412C0C30EC00BA
:10086A001A200130EC001A200130DE000130DF00CE
:10087A003730E0000521852C0C30EC001A200130BD
:10088A00EC001A200130DE000130DF002030E000E9
:10089A0005213F08DE004008DF004430E0007021F7
:1008AA004430DE0089227008D4000130DE000B30AB
:1008BA00DF007008E00005210230DE000130DF00B1
:1008CA003030E00005210130D902031CDA0359084F
:1008DA00DE005A08DF004430E00070214430DE00B8
:1008EA0089227008D4000230DE000730DF0044306D
:1008FA00E0000521BF01C001DC0A0319DD0A312B22
:10090A000C30EC001A200130EC001A200130DE0015
:0C091A000130DF002B30E0000521922CA2
:04400E00F22F000786
:00000001FF
